:100000000C941E010C9446010C9446010C9446017C
:100010000C9446010C9446010C9446010C94460144
:100020000C9446010C9446010C9446010C94460134
:100030000C9446010C9446010C9446010C94460124
:100040000C94BA090C9446010C9446010C94460198
:100050000C9446010C9446010C9446010C94460104
:100060000C9446010C9446013F391F3E0F3D1E3C47
:100070000E3B1D3A0D1C0C1B0B1A0A190918081708
:1000800007163106150514320433133435033612BE
:10009000021137011000383F065B4F666D7D077F08
:1000A0006F777C395E79719E02B502CF02E8020259
:1000B000031D033903560375039303B403CE03E80A
:1000C000030B04300455047C04A404CE04F9042674
:1000D0000555058505B605EA051F063E0656068F39
:1000E00006CA0607072B0746076B078807AE07CB2C
:1000F00007F30711083B088508D108F308200972A7
:1001000009C709ED09204F4646003F065B4F666D63
:100110007D077F6F777C395E79717950505C500034
:1001200000000086227E6D0000023006630004405D
:1001300080523F065B4F666D7D277F6F0000004851
:1001400000535F777F393F79713D76061F69381517
:10015000373F7367316D783E2A1D766E5B39640FC9
:100160000008205F7C585E7B316F74040E7530553B
:10017000545C7367506D781C2A1D766E4746067076
:100180000100000000240027002A000000000025D4
:100190000028002B00000000002300260029000496
:1001A000040404040404040202020202020303031E
:1001B0000303030102040810204080010204081018
:1001C00020010204081020000000080002010000C5
:1001D00003040700000000000000000086227E6D7E
:1001E00000000230066300044080523F065B4F6609
:1001F0006D7D277F6F0000004800535F777F393F98
:1002000079713D76061F693815373F7367316D7810
:100210003E2A1D766E5B39640F0008205F7C585EB5
:100220007B316F74040E753055545C7367506D7874
:100230001C2A1D766E4746067001B70B11241FBE9F
:10024000CFEFD8E0DEBFCDBF22E0ACE6B1E001C029
:100250001D92A034B207E1F711E0A0E0B1E0E0EBBD
:10026000FDE102C005900D92AC36B107D9F711E05F
:10027000CEE1D1E004C02197FE010E94E50CCD3112
:10028000D107C9F70E94040A0C94D60E0C94000002
:10029000AF92BF92CF92DF92EF92FF920F931F9394
:1002A000CF93DF936C017B018B01040F151FEB01D2
:1002B0005E01AE18BF08C017D10759F06991D60189
:1002C000ED91FC910190F081E02DC6010995892BFB
:1002D00079F7C501DF91CF911F910F91FF90EF90BA
:1002E000DF90CF90BF90AF900895833081F028F4D5
:1002F000813099F08230A9F008958730A9F08830D4
:10030000C9F08430B1F4809180008F7D03C080916A
:1003100080008F7780938000089584B58F7784BDA7
:10032000089584B58F7DFBCF8091B0008F77809347
:10033000B00008958091B0008F7DF9CFCF93DF9307
:10034000282F30E0F901E953FE4F8491F901ED5473
:10035000FE4FD491F901E156FE4FC491CC23A1F098
:1003600081110E947501EC2FF0E0EE0FFF1FEB569C
:10037000FE4FA591B491EC91ED2381E090E009F45A
:1003800080E0DF91CF91089580E090E0FACF1F9355
:10039000CF93DF93282F30E0F901E953FE4F84918A
:1003A000F901ED54FE4FD491F901E156FE4FC4918D
:1003B000CC23A9F0162F81110E947501EC2FF0E0DB
:1003C000EE0FFF1FE557FE4FA591B4918FB7F8943C
:1003D000EC91111108C0D095DE23DC938FBFDF9123
:1003E000CF911F910895DE2BF8CFCF93DF9390E04C
:1003F000FC01ED54FE4F249181569E4FFC018491E7
:100400008823D1F090E0880F991FFC01EF57FE4F31
:10041000A591B491FC01E557FE4FC591D4916111AE
:100420000EC09FB7F8948C91E22FE0958E238C93A9
:100430002881E223E8839FBFDF91CF9108958FB792
:10044000F894EC91E22BEC938FBFF6CF3FB7F89482
:100450008091760190917701A0917801B091790116
:1004600026B5A89B05C02F3F19F00196A11DB11D0F
:100470003FBFBA2FA92F982F8827BC01CD01620F4B
:10048000711D811D911D42E0660F771F881F991F06
:100490004A95D1F708958F929F92AF92BF92CF92D3
:1004A000DF92EF92FF926B017C010E9426024B01CA
:1004B0005C01C114D104E104F104B9F00E942602E8
:1004C000681979098A099B09683E7340810591057D
:1004D00080F321E0C21AD108E108F10888EE880E05
:1004E00083E0981EA11CB11CE4CFFF90EF90DF9039
:1004F000CF90BF90AF909F908F9008951F93CF9310
:10050000DF93EC01162F662371F06A3061F06D30D5
:1005100051F08F814E8150E0282F082E000C330BB4
:10052000241735070CF16F811616BCF42E81862F27
:10053000062E000C990B2817190679F074F08C819F
:100540009D81DC01ED91FC910284F385E02D40E07A
:1005500009958F818F5F8F83E6CF1F8290E080E0C7
:10056000DF91CF911F910895962F9D7F9C3229F0A6
:1005700096EC960F20E0923038F410910001181696
:1005800014F481508F8321E06F8167FD17C0862F9F
:10059000062E000C990B8417950784F48C819D819D
:1005A000412F4052550BFA01EE5DFE4F4491DC01A4
:1005B000ED91FC910088F189E02D099510930001DF
:1005C0008F818F5F8F8381E090E0CACFDC0114962A
:1005D0008D919C91DC01ED91FC910280F381E02DE5
:1005E00009940F931F93CF93DF938C01DC01149632
:1005F0008D919C91DC01ED91FC910484F585E02DB9
:1006000048E06AE171E00995C8E0D0E0F801868130
:100610008C171D0671F06CF084819581DC01ED91E1
:10062000FC910284F385E02D40E06C2F0995219622
:10063000EDCFDF91CF911F910F9108952F923F92AF
:100640005F926F927F928F929F92AF92BF92CF9262
:10065000DF92EF92FF920F931F93CF93DF936C0182
:100660007B015A01522EDB0114962D903C90D0E074
:10067000C0E0622E712C88248394912CF60126818F
:1006800030E0C90186199709C817D907C4F5C21502
:10069000D305ACF584819581DC01ED91FC91A089B5
:1006A000B1892C1B3D0B21503109A40102C0440F1C
:1006B000551F2A95E2F74A215B2121E0452B09F4D9
:1006C00020E0F70144815581C417D507B0F440817B
:1006D00051814115510589F04C0F5D1FFA013081A0
:1006E000E32F330FFF0BB097E00FF11F44916C2FF6
:1006F000650DFD0109952196C1CF30E0F1CFDF9165
:10070000CF911F910F91FF90EF90DF90CF90BF900E
:10071000AF909F908F907F906F905F903F902F90C1
:1007200008950F931F93DC0114968D919C91DC0129
:10073000ED91FC910684F785E02D09951F910F91AD
:100740000895089590E080E00895CF92DF92EF92AF
:10075000FF921F93CF93DF93EC0160E08D810E94A5
:10076000F50161E08D810E94C70198E0C92ED12C6E
:1007700010E0E12EF12CF594E7941E2D60E08E81BF
:100780000E94C701E881F9810488F589E02DCE0136
:1007900009958D810E949E01892B09F0106861E006
:1007A0008E810E94C701E881F9810488F589E02DD6
:1007B000CE01099581E0C81AD108D9F661E08D8192
:1007C0000E94F50160E08D810E94C701812FDF91B9
:1007D000CF911F91FF90EF90DF90CF9008950F93EE
:1007E0001F93CF93DF93EC01162F042FE881F9813B
:1007F000048CF58DE02D64E40995E881F981068883
:10080000F789E02DCE010995612F606CE881F981AF
:10081000028CF38DE02DCE010995E881F981028CDF
:10082000F38DE02D602FCE010995E881F981008CD0
:10083000F18DE02DCE01DF91CF911F910F910994A1
:100840001F93CF93DF93EC01162FE881F98106887F
:10085000F789E02D0995E881F981028CF38DE02D6F
:10086000612FCE010995E881F981008CF18DE02D91
:10087000CE01DF91CF911F910994FF920F931F93A7
:10088000CF93DF93EC01F62E08E010E060E08E815C
:100890000E94C701E881F9810488F589E02DCE0125
:1008A00009956F2D61708D810E94C701E881F981E2
:1008B0000488F589E02DCE010995F69461E08E81DA
:1008C0000E94C701E881F9810488F589E02DCE01F5
:1008D000099501501109D1F6E881F9810488F5895B
:1008E000E02DCE01DF91CF911F910F91FF900994E0
:1008F000CF93DF93EC0161E08F810E94C701E88113
:10090000F9810488F589E02DCE01DF91CF9109941A
:10091000CF93DF93EC0160E08F810E94C701E881F3
:10092000F9810488F589E02DCE01DF91CF910994FA
:10093000089560E070E0CB0108955F926F927F921E
:100940008F929F92AF92BF92CF92DF92EF92FF92DF
:100950000F931F93CF93DF936C015A01522E7B01AB
:10096000D0E0C0E0622E712C88248394912CD601B3
:1009700014968C9190E09C0126193709C217D30771
:1009800044F5D701ED917D01EE2319F10E2E000CF7
:10099000FF0BB097E00FF11F44918C1B9D0B01974B
:1009A000F40102C0EE0FFF1F8A95E2F7CF018A2102
:1009B0009B2121E0892B09F420E06C2F650DD601E5
:1009C000ED91FC910088F189E02DC60109952196F1
:1009D000CECFDF91CF911F910F91FF90EF90DF90DD
:1009E000CF90BF90AF909F908F907F906F905F90CF
:1009F0000895CF92DF92EF92FF920F931F93CF93C0
:100A0000DF937C016B01042F10E0D0E0C0E0C01741
:100A1000D10781F0F601EC0FFD1F4491D701ED9154
:100A2000FC910088F189E02D20E06C2FC701099529
:100A30002196EDCFDF91CF911F910F91FF90EF9015
:100A4000DF90CF900895242FDC01ED91FC91008878
:100A5000F189E02D40E009949F92AF92BF92CF922E
:100A6000DF92EF92FF920F931F93CF93DF937C015E
:100A7000C1E0C42ED12C8AE0A82EB12CD701149647
:100A80004C914C17F0F096010C2E02C0359527952D
:100A90000A94E2F721704C1BCB01B5010E949B0C1C
:100AA000962ED72FD701ED91FC910680F781E02D8E
:100AB0000AE011E0682FC7010995692D7D2FCF5FEE
:100AC000DDCFDF91CF911F910F91FF90EF90DF90DD
:100AD000CF90BF90AF909F9008950F931F93E62FF4
:100AE000642FEF70E00FF12FF11D4491DC01ED91C7
:100AF000FC910088F189E02D1F910F910994362F08
:100B0000DC01ED91FC910480F581E02D60E0211184
:100B100060E8642B432F0994242FDC0112963C914A
:100B20001297431740F4ED91FC91068CF78DE02D60
:100B3000462F622F099408950F931F93CF93DF934D
:100B4000EC01E881F981048CF58DE02D60E40995D4
:100B5000E881F9810688F789E02DCE010995E881C1
:100B6000F981028CF38DE02D60ECCE01099510E047
:100B700000E0E881F9818A8180171106A9F0A4F0CC
:100B8000028CF38DE02D60E0CE0109958B818930D8
:100B900040F0E881F981028CF38DE02D60E0CE0118
:100BA00009950F5F1F4FE5CF008CF18DE02DCE0131
:100BB000DF91CF911F910F910994DC01ED91FC9190
:100BC000048CF58DE02D611106C060E8483008F016
:100BD00047E0642B099468E8F9CF0F931F93CF93F4
:100BE0008C01DC01ED91FC910688F789E02D0995D7
:100BF000D801ED91FC91028CF38DE02D69E4C801E0
:100C00000995D801ED91FC9100A0F1A1E02DC8015A
:100C10000995C82FD801ED91FC91008CF18DE02D44
:100C2000C801099560E070E0CB01C43470F0C834AD
:100C300080F4C45461E070E080E090E004C0660F8E
:100C4000771F881F991FCA95D2F7CF911F910F91D7
:100C50000895C03510F4C854EDCFC83510F4CC5405
:100C6000E9CFC03610F4C055E5CFC83610F4C455EE
:100C7000E1CFC03710F4C855DDCFC837D8F6CC5512
:100C8000D9CFEF92FF921F93CF93DF93EC0160E0F7
:100C90008E810E94C70160E08D810E94F50161E0B4
:100CA0008D810E94C70188E0E82EF12C10E0110F21
:100CB00061E08E810E94C701E881F9810488F5898D
:100CC000E02DCE0109958D810E949E01892B09F0AE
:100CD000116060E08E810E94C701E881F98104887B
:100CE000F589E02DCE01099581E0E81AF108F9F6C1
:100CF00060E08E810E94C70160E08D810E94F50155
:100D000061E08D810E94C701E881F9810488F5893D
:100D1000E02DCE01099561E08E810E94C701E88136
:100D2000F9810488F589E02DCE0109958D810E9415
:100D30009E01F82E60E08E810E94C701F11004C070
:100D400060E08D810E94C70161E08D810E94F50104
:100D5000812FDF91CF911F91FF90EF9008950F9316
:100D60001F93CF93DF93EC01062F483008F047E044
:100D700011E0140F183009F410E0E881F9810688B9
:100D8000F789E02DCE010995E881F981028CF38D78
:100D9000E02D68E4CE010995E881F981028CF38D9C
:100DA000E02D80E1189FA00111248B8160E0873045
:100DB00009F468E0402B642BCE010995E881F981A4
:100DC000008CF18DE02DCE01DF91CF911F910F911D
:100DD00009940F931F93CF93DF938C01D0E0C0E071
:100DE000D80112968C9112978C171D0661F05CF059
:100DF000ED91FC91068CF78DE02D40E06C2FC80141
:100E000009952196EDCFDF91CF911F910F91089514
:100E10000F931F93CF93DF93EC01162F042FE881DC
:100E2000F9810688F789E02D0995612F660F6866BC
:100E3000E881F981028CF38DE02DCE010995E881DE
:100E4000F981028CF38DE02D602FCE010995E881A8
:100E5000F981008CF18DE02DCE01DF91CF911F91B2
:100E60000F910994FF920F931F93CF93DF93EC019F
:100E7000F62E08E010E060E08E810E94C701E88154
:100E8000F9810488F589E02DCE0109956F2D661F43
:100E90006627661F8D810E94C701FF0C61E08E816D
:100EA0000E94C701E881F9810488F589E02DCE010F
:100EB000099501501109F9F6E881F9810488F5894D
:100EC000E02DCE010995E881F9810488F589E02DAE
:100ED000CE01099560E08E810E94C70160E08D819E
:100EE0000E94F501E881F9810488F589E02DCE01A1
:100EF000099561E08E810E94C701E881F98104882B
:100F0000F589E02DCE0109958D810E949E01811108
:100F100004C060E08D810E94C70161E08D81DF9196
:100F2000CF911F910F91FF900C94F501CF93DF9318
:100F3000EC0160E08E810E94C70160E08D810E941B
:100F4000C701E881F9810488F589E02DCE01099572
:100F500061E08E810E94C70161E08D810E94C7011E
:100F6000E881F9810488F589E02DCE01DF91CF91E8
:100F70000994CF93DF93EC0161E08D810E94C7015A
:100F800061E08E810E94C701E881F9810488F589BA
:100F9000E02DCE01099560E08D810E94C70160E0DF
:100FA0008E810E94C701E881F9810488F589E02DCE
:100FB000CE01DF91CF9109948FE090E00197F1F796
:100FC000089580918301882339F1E0918401F0E054
:100FD000E859FF4F85919491880F880F5E985B9830
:100FE000F89498E025E087FF19C05A9A322F3A9575
:100FF000F1F75B9A322F3A95F1F75B98322F3A95D9
:10100000F1F7880F915079F75E9A8AE08A95F1F7A7
:101010005E985A987894089580E3DECF5A98E6CF88
:10102000FF920F931F93CF93DF93EC01F62E08816D
:101030001981C8010E944E0CF81621F06F2DC801CD
:101040000E94560CCE01DF91CF911F910F91FF901E
:101050000895EF92FF920F931F93CF93DF9300D0E9
:10106000CDB7DEB78C017B019A838983FB01608158
:10107000CE0101960E9410080F5F1F4F1A8309834B
:10108000F7016181CE0101960E941008C7010F90FF
:101090000F90DF91CF911F910F91FF90EF900895E6
:1010A0002F923F924F925F926F927F928F929F9278
:1010B000AF92BF92CF92DF92EF92FF920F931F9366
:1010C000CF93DF93CDB7DEB728970FB6F894DEBF86
:1010D0000FBECDBF80918301882309F456C0E091F3
:1010E0008401F0E0EE0FFF1FE955FF4F459054904B
:1010F000712C612CF12CE12C92E0292E312CC09026
:101100007301CE141F0409F00CF480C0C1010E2C31
:1011100002C0959587950A94E2F7282F2170D22E68
:10112000A0907101B0907201D5010D911C91CA94EB
:10113000CE184114510461047104F1F0C301B201ED
:101140002AE030E040E050E00E94AF0C922E3F8356
:10115000842E5887D8011696ED91FC9107E910E08E
:101160002D2D4C2DC5010995492C5F80682C788464
:10117000BFEFEB1AFB0AC3CFD8011A96ED91FC9191
:10118000422F6C2DC5010995F3CF1A8219821C825A
:101190001B821E821D8265E070E090E080E00E946C
:1011A000100E0097A9F09A83898324E030E03C83F5
:1011B0002B832D813E81232B11F4FC01108224E02E
:1011C00030E03E832D8365E071E00E94470C0CC047
:1011D00089819A81009711F00E94870D1A821982E5
:1011E0001E821D821C821B820BED11E020E050E06C
:1011F00040E0BE016F5F7F4F8DE691E00E941E03CD
:1012000089819A81009711F00E94870D28960FB668
:10121000F894DEBF0FBECDBFDF91CF911F910F912C
:10122000FF90EF90DF90CF90BF90AF909F908F9006
:101230007F906F905F904F903F902F9008958B31EB
:1012400031F48091830191E08927809383010E948A
:10125000E1070C9450080F931F93CF93DF9300D0B6
:10126000CDB7DEB78F3089F503E010E08AE791E073
:101270000E94E90668EC70E080E090E00E944B027A
:101280000E94500868EC70E080E090E00E944B0201
:101290000150110959F768EC70E080E090E00E947D
:1012A0004B020E94E107609184011A821982CE01EB
:1012B00001960E9410086091830181E090E09A837A
:1012C0008983CE0101960E9410080F900F90DF9144
:1012D000CF911F910F91089590918301992359F116
:1012E0008B3011F0873039F590916C01983C20F4E7
:1012F0009F5F90936C0108958B3091F480918401ED
:1013000090918201891720F48F5F8093840102C03D
:101310001092840110926C010E94E1070C94500815
:101320008730C1F780918401882311F08150EDCF7F
:1013300080918201EACF0895873091F08B30C9F413
:101340008091840190918201891720F48F5F8093AE
:10135000840102C0109284010E94E1070C9450089D
:1013600080918401882311F08150F1CF8091820116
:10137000EECF08951F920F920FB60F9211242F9364
:101380003F938F939F93AF93BF93809185019091EB
:101390008601A0918701B09188013091750123E009
:1013A000230F2D3758F50196A11DB11D209375010E
:1013B0008093850190938601A0938701B093880163
:1013C0008091760190917701A0917801B091790197
:1013D0000196A11DB11D8093760190937701A09392
:1013E0007801B0937901BF91AF919F918F913F9117
:1013F0002F910F900FBE0F901F90189526E8230F86
:101400000296A11DB11DD2CFCF93DF9300D0CDB7EF
:10141000DEB7789484B5826084BD84B5816084BD74
:1014200085B5826085BD85B5816085BD80916E0082
:10143000816080936E0010928100809181008260B3
:1014400080938100809181008160809381008091F0
:1014500080008160809380008091B10084608093DF
:10146000B1008091B00081608093B00080917A00DB
:10147000846080937A0080917A00826080937A0001
:1014800080917A00816080937A0080917A008068F0
:1014900080937A001092C100529A539A569A5E989D
:1014A0005B985A988FEF93E00E944E0C8F37B9F0FB
:1014B0006FE78FEF93E00E94560C1A821982BE01EB
:1014C0006F5F7F4F90E080E00E94290881E090E00C
:1014D0009A838983BE016F5F7F4F0E94290890E045
:1014E00080E00E944E0C8093840181E090E00E9495
:1014F0004E0C809383018EE2809382010E94E1076B
:1015000044E061E08AE791E00E94AF068AE791E05B
:101510000E94E9060BED11E020E050E040E067E6B4
:1015200071E08AE791E00E949D048BE299E090933C
:101530009101809390018CE999E0909393018093BD
:1015400092018FE199E090939701809396018CE648
:1015500099E090939B0180939A0168EE73E080E09C
:1015600090E00E944B028AE791E00E94E9060E9407
:10157000500822242394F4E03F2E02E0A0E04A2EFB
:10158000A0E05A2E8091890190918A01DC01ED91B1
:10159000FC910288F389E02D09956B017C0110E034
:1015A00080918B01181708F0DBC0412F50E04601F5
:1015B0005701012E04C0B694A794979487940A9477
:1015C000D2F7B1E08B229924AA24BB242FB7F89438
:1015D0008091850190918601A0918701B091880149
:1015E0002FBFFA01E757FE4F3F012389223009F44C
:1015F0006FC030F4222319F1213071F11F5FD0CF79
:10160000233009F493C02430C9F789288A288B280D
:1016100009F059C0138A440F551FFA01E450FE4FD8
:1016200091838083E0919001F0919101309711F0C6
:10163000812F0995E0919801F09199011EC08928A8
:101640008A288B28D9F2238A440F551FFA01E757BD
:10165000FE4F94AB83ABD2CF9A01220F331F892860
:101660008A288B2881F4038B24503E4FF901918303
:101670008083E0919001F0919101309709F4BECF01
:10168000812F0995BBCFB90167577E4FFB0123A975
:1016900034A9AC01421B530B20918E0130918F0174
:1016A0002417350708F0AACFF301338AFB01ED5860
:1016B000FF4F91838083E0919601F09197013097DD
:1016C00011F0812F0995E0919A01F0919B01D5CFFE
:1016D0002091940130919501232B91F0440F551FD7
:1016E000BA0167577E4FFB0123A934A9AC01421B05
:1016F000530B20918C0130918D012417350760F434
:10170000E0919201F0919301309711F0812F0995AA
:10171000D30153961C9272CF89288A288B2809F40A
:101720006DCF23E0F301238BFB0193CF89288A2817
:101730008B2809F063CF138A440F551FFA01E45038
:10174000FE4F91838083E0919001F0919101309759
:1017500011F0812F0995E0919401F09195018DCFC1
:101760004114510409F40ECF0E9400000BCF0F93D7
:101770001F93CF93DF930AE711E08FE191E09093FD
:101780007B0180937A01D8E0D0937D018EE0809335
:101790007F019FE09093800180938101C4E0C0931A
:1017A0007C01C0937E0161E00E94F50161E08FE061
:1017B0000E94F50161E08EE00E94F50161E08EE09B
:1017C0000E94C70161E08FE00E94C70185E491E0BB
:1017D00090937B0180937A01C8010E94E906D0931F
:1017E0007D0147E061E0C8010E94AF0610927001E0
:1017F00010926F018BE091E090936E0180936D01E8
:10180000109274011093720100937101C0937301DF
:1018100010938A010093890180E280938B0184EF09
:1018200091E090938D0180938C0188EE93E09093EA
:101830008F0180938E01109291011092900110926D
:1018400093011092920110929501109294011092BE
:10185000970110929601109299011092980110929E
:101860009B0110929A01ECE9F1E0ACEBB1E011922E
:101870001D921D92DF961C921E92DE9781E0EC3B3A
:10188000F807A9F7DF91CF911F910F910895FB0100
:10189000DC0105900D920020E1F70895F999FECF43
:1018A00092BD81BDF89A992780B50895262FF999A0
:1018B000FECF1FBA92BD81BD20BD0FB6F894FA9A33
:1018C000F99A0FBE019608952F923F924F925F9220
:1018D0006F927F928F929F92AF92BF92CF92DF9240
:1018E000EF92FF920F931F93CF93DF93CDB7DEB7A5
:1018F000CA1BDB0B0FB6F894DEBF0FBECDBF099439
:101900002A88398848885F846E847D848C849B848F
:10191000AA84B984C884DF80EE80FD800C811B819D
:10192000AA81B981CE0FD11D0FB6F894DEBF0FBECC
:10193000CDBFED01089597FB072E16F4009407D054
:1019400077FD09D00E94D10C07FC05D03EF490959C
:1019500081959F4F0895709561957F4F0895A1E2FD
:101960001A2EAA1BBB1BFD010DC0AA1FBB1FEE1F19
:10197000FF1FA217B307E407F50720F0A21BB30B64
:10198000E40BF50B661F771F881F991F1A9469F7E0
:1019900060957095809590959B01AC01BD01CF013C
:1019A0000895AA1BBB1B51E107C0AA1FBB1FA617A6
:1019B000B70710F0A61BB70B881F991F5A95A9F7F8
:1019C00080959095BC01CD010895EE0FFF1F059005
:1019D000F491E02D09940F931F93CF93DF938230FE
:1019E000910510F482E090E0E0913E02F0913F0218
:1019F00030E020E0B0E0A0E0309799F42115310507
:101A000009F44AC0281B390B24303105D8F58A81E6
:101A10009B816115710589F1FB0193838283FE012E
:101A200011C0408151810281138148175907E0F0AC
:101A30004817590799F4109761F012960C93129772
:101A400013961C933296CF01DF91CF911F910F9186
:101A5000089500933E0210933F02F4CF2115310503
:101A600051F04217530738F0A901DB019A01BD017B
:101A7000DF01F801C1CFEF01F9CF90933F028093CE
:101A80003E02CDCFFE01E20FF31F819391932250CE
:101A9000310939832883D7CF20913C0230913D0210
:101AA000232B41F4209103013091040130933D0236
:101AB00020933C0220910101309102012115310552
:101AC00041F42DB73EB74091050150910601241B0A
:101AD000350BE0913C02F0913D02E217F307A0F4D0
:101AE0002E1B3F0B2817390778F0AC014E5F5F4F74
:101AF0002417350748F04E0F5F1F50933D02409367
:101B00003C02819391939FCFF0E0E0E09CCFCF9394
:101B1000DF930097E9F0FC01329713821282A091C3
:101B20003E02B0913F02ED0130E020E01097A1F4B9
:101B300020813181820F931F20913C0230913D0220
:101B40002817390709F061C0F0933D02E0933C0289
:101B5000DF91CF910895EA01CE17DF07E8F54A81BA
:101B60005B819E0141155105B1F7E901FB83EA83D1
:101B700049915991C40FD51FEC17FD0761F480817D
:101B800091810296840F951FE90199838883828150
:101B900093819B838A83F0E0E0E012968D919C9183
:101BA00013970097B9F52D913C911197CD010296AD
:101BB000820F931F20913C0230913D022817390774
:101BC00039F6309751F510923F0210923E02B093D1
:101BD0003D02A0933C02BCCFD383C283408151819C
:101BE000840F951FC817D90761F44E5F5F4F888136
:101BF0009981480F591F518340838A819B81938328
:101C000082832115310509F0B0CFF0933F02E093B4
:101C10003E029ECFFD01DC01C0CF13821282D7CFDE
:101C2000B0E0A0E0E6E1FEE00C94660C8C010097C9
:101C300051F4CB010E94EB0C8C01C801CDB7DEB78B
:101C4000E0E10C94820CFC01E60FF71F9C0122508E
:101C50003109E217F30708F49DC0D901CD91DC9159
:101C60001197C617D70798F0C530D10530F3CE01CC
:101C700004978617970708F3C61BD70B2297C193C3
:101C8000D1936D937C93CF010E94870DD6CF5B01DA
:101C9000AC1ABD0A4C018C0E9D1EA0913E02B09163
:101CA0003F02512C412CF12CE12C109731F5809101
:101CB0003C0290913D028815990509F05CC04616DA
:101CC000570608F058C080910101909102010097D9
:101CD00041F48DB79EB74091050150910601841BD8
:101CE000950BE817F90708F055C0F0933D02E09313
:101CF0003C02F90171836083A0CF8D919C91119773
:101D000012966C90129713967C901397A815B905AC
:101D100059F56C0142E0C40ED11CCA14DB0420F159
:101D2000AC014A195B09DA011296159780F06282BC
:101D3000738251834083D9016D937C93E114F10444
:101D400071F0D7011396FC93EE93129776CF2296FB
:101D50008C0F9D1FF90191838083F301EFCFF093E6
:101D60003F02E0933E0269CF4816590608F42C0161
:101D70007D01D3019ACFCB010E94EB0C7C0100972F
:101D800049F0AE01B8010E94CD0EC8010E94870D36
:101D9000870153CF10E000E050CFFB01DC0102C00F
:101DA00001900D9241505040D8F70895F894FFCF1C
:101DB00020000040028000000000007E024801A2D6
:101DC00003A103E60291031E03F10200000000DDFF
:101DD000059C058C056D052C052305F9049D047FE4
:101DE0000599049804880478043D042004EF03A5B1
:101DF0000300000000AF06E9068C056D052C0523E5
:101E000005F9049D047F05ED05DC07B90796073247
:0C1E10000720040807410648414C4F0021
:00000001FF
